{
  "contractName": "AuditTracer",
  "abi": [
    {
      "constant": true,
      "inputs": [],
      "name": "gx",
      "outputs": [
        {
          "name": "",
          "type": "uint256"
        }
      ],
      "payable": false,
      "stateMutability": "view",
      "type": "function"
    },
    {
      "constant": true,
      "inputs": [],
      "name": "xt",
      "outputs": [
        {
          "name": "",
          "type": "uint256"
        }
      ],
      "payable": false,
      "stateMutability": "view",
      "type": "function"
    },
    {
      "constant": true,
      "inputs": [],
      "name": "a",
      "outputs": [
        {
          "name": "",
          "type": "uint256"
        }
      ],
      "payable": false,
      "stateMutability": "view",
      "type": "function"
    },
    {
      "constant": true,
      "inputs": [],
      "name": "index",
      "outputs": [
        {
          "name": "",
          "type": "uint256"
        }
      ],
      "payable": false,
      "stateMutability": "view",
      "type": "function"
    },
    {
      "constant": true,
      "inputs": [],
      "name": "gy",
      "outputs": [
        {
          "name": "",
          "type": "uint256"
        }
      ],
      "payable": false,
      "stateMutability": "view",
      "type": "function"
    },
    {
      "constant": true,
      "inputs": [],
      "name": "yt_x",
      "outputs": [
        {
          "name": "",
          "type": "uint256"
        }
      ],
      "payable": false,
      "stateMutability": "view",
      "type": "function"
    },
    {
      "constant": true,
      "inputs": [],
      "name": "tracerCreator",
      "outputs": [
        {
          "name": "",
          "type": "address"
        }
      ],
      "payable": false,
      "stateMutability": "view",
      "type": "function"
    },
    {
      "constant": true,
      "inputs": [],
      "name": "i_y",
      "outputs": [
        {
          "name": "",
          "type": "uint256"
        }
      ],
      "payable": false,
      "stateMutability": "view",
      "type": "function"
    },
    {
      "constant": true,
      "inputs": [],
      "name": "b",
      "outputs": [
        {
          "name": "",
          "type": "uint256"
        }
      ],
      "payable": false,
      "stateMutability": "view",
      "type": "function"
    },
    {
      "constant": true,
      "inputs": [],
      "name": "c_y",
      "outputs": [
        {
          "name": "",
          "type": "uint256"
        }
      ],
      "payable": false,
      "stateMutability": "view",
      "type": "function"
    },
    {
      "constant": true,
      "inputs": [],
      "name": "c_x",
      "outputs": [
        {
          "name": "",
          "type": "uint256"
        }
      ],
      "payable": false,
      "stateMutability": "view",
      "type": "function"
    },
    {
      "constant": true,
      "inputs": [],
      "name": "i_x",
      "outputs": [
        {
          "name": "",
          "type": "uint256"
        }
      ],
      "payable": false,
      "stateMutability": "view",
      "type": "function"
    },
    {
      "constant": true,
      "inputs": [],
      "name": "p",
      "outputs": [
        {
          "name": "",
          "type": "uint256"
        }
      ],
      "payable": false,
      "stateMutability": "view",
      "type": "function"
    },
    {
      "constant": true,
      "inputs": [],
      "name": "yt_y",
      "outputs": [
        {
          "name": "",
          "type": "uint256"
        }
      ],
      "payable": false,
      "stateMutability": "view",
      "type": "function"
    },
    {
      "inputs": [],
      "payable": false,
      "stateMutability": "nonpayable",
      "type": "constructor"
    },
    {
      "anonymous": false,
      "inputs": [
        {
          "indexed": false,
          "name": "information",
          "type": "string"
        },
        {
          "indexed": true,
          "name": "sender",
          "type": "address"
        },
        {
          "indexed": false,
          "name": "timestamp",
          "type": "uint256"
        },
        {
          "indexed": false,
          "name": "calltimes",
          "type": "uint256"
        },
        {
          "indexed": false,
          "name": "obj",
          "type": "uint256"
        }
      ],
      "name": "trace_log",
      "type": "event"
    },
    {
      "constant": false,
      "inputs": [
        {
          "name": "_a",
          "type": "uint256"
        },
        {
          "name": "_b",
          "type": "uint256"
        },
        {
          "name": "_p",
          "type": "uint256"
        },
        {
          "name": "_gx",
          "type": "uint256"
        },
        {
          "name": "_gy",
          "type": "uint256"
        }
      ],
      "name": "register_parameter",
      "outputs": [],
      "payable": false,
      "stateMutability": "nonpayable",
      "type": "function"
    },
    {
      "constant": true,
      "inputs": [],
      "name": "get_private_key",
      "outputs": [
        {
          "name": "",
          "type": "uint256"
        }
      ],
      "payable": false,
      "stateMutability": "view",
      "type": "function"
    },
    {
      "constant": false,
      "inputs": [],
      "name": "calculate_public_key",
      "outputs": [],
      "payable": false,
      "stateMutability": "nonpayable",
      "type": "function"
    },
    {
      "constant": true,
      "inputs": [],
      "name": "get_public_key",
      "outputs": [
        {
          "name": "",
          "type": "uint256"
        },
        {
          "name": "",
          "type": "uint256"
        }
      ],
      "payable": false,
      "stateMutability": "view",
      "type": "function"
    },
    {
      "constant": false,
      "inputs": [],
      "name": "credential_tracing",
      "outputs": [
        {
          "name": "",
          "type": "uint256"
        },
        {
          "name": "",
          "type": "uint256"
        }
      ],
      "payable": false,
      "stateMutability": "nonpayable",
      "type": "function"
    },
    {
      "constant": false,
      "inputs": [],
      "name": "identity_tracing",
      "outputs": [
        {
          "name": "",
          "type": "uint256"
        },
        {
          "name": "",
          "type": "uint256"
        }
      ],
      "payable": false,
      "stateMutability": "nonpayable",
      "type": "function"
    },
    {
      "constant": false,
      "inputs": [
        {
          "name": "xiupsilon_x",
          "type": "uint256"
        },
        {
          "name": "xiupsilon_y",
          "type": "uint256"
        }
      ],
      "name": "credential_calculating",
      "outputs": [],
      "payable": false,
      "stateMutability": "nonpayable",
      "type": "function"
    },
    {
      "constant": false,
      "inputs": [
        {
          "name": "zeta1_x",
          "type": "uint256"
        },
        {
          "name": "zeta1_y",
          "type": "uint256"
        }
      ],
      "name": "identity_calculating",
      "outputs": [],
      "payable": false,
      "stateMutability": "nonpayable",
      "type": "function"
    },
    {
      "constant": true,
      "inputs": [
        {
          "name": "x1",
          "type": "uint256"
        },
        {
          "name": "z1",
          "type": "uint256"
        },
        {
          "name": "x2",
          "type": "uint256"
        },
        {
          "name": "z2",
          "type": "uint256"
        }
      ],
      "name": "_jMul",
      "outputs": [
        {
          "name": "x3",
          "type": "uint256"
        },
        {
          "name": "z3",
          "type": "uint256"
        }
      ],
      "payable": false,
      "stateMutability": "view",
      "type": "function"
    },
    {
      "constant": true,
      "inputs": [
        {
          "name": "x1",
          "type": "uint256"
        },
        {
          "name": "y1",
          "type": "uint256"
        },
        {
          "name": "scalar",
          "type": "uint256"
        }
      ],
      "name": "ecmul",
      "outputs": [
        {
          "name": "x2",
          "type": "uint256"
        },
        {
          "name": "y2",
          "type": "uint256"
        }
      ],
      "payable": false,
      "stateMutability": "view",
      "type": "function"
    }
  ],
  "bytecode": "0x60806040526000600a5534801561001557600080fd5b5033600560006101000a81548173ffffffffffffffffffffffffffffffffffffffff021916908373ffffffffffffffffffffffffffffffffffffffff1602179055506110b5806100666000396000f30060806040526004361061013e576000357c0100000000000000000000000000000000000000000000000000000000900463ffffffff16806306c91ce314610143578063073941ee1461016e57806308c10846146101c35780630dbe671f146101ee5780632986c0e5146102195780632d58c9a214610244578063338d0dd61461026f57806336996a95146102a65780634b06d3cb146102d15780634bc34971146103285780634df7e3d0146103535780634e12bb5c1461037e5780635b764811146103a95780635e80c8541461040f5780635ee27ac21461043a578063600f00511461046c5780636f90a061146104835780637892c9d1146104ae5780638081a1e7146104d9578063919f7a25146105355780639ae8886a146105675780639c8316cf14610592578063d8bfff3a146105c9578063fdab4989146105f4575b600080fd5b34801561014f57600080fd5b50610158610626565b6040518082815260200191505060405180910390f35b34801561017a57600080fd5b506101c1600480360381019080803590602001909291908035906020019092919080359060200190929190803590602001909291908035906020019092919050505061062c565b005b3480156101cf57600080fd5b506101d8610665565b6040518082815260200191505060405180910390f35b3480156101fa57600080fd5b5061020361066b565b6040518082815260200191505060405180910390f35b34801561022557600080fd5b5061022e610671565b6040518082815260200191505060405180910390f35b34801561025057600080fd5b50610259610677565b6040518082815260200191505060405180910390f35b34801561027b57600080fd5b506102a4600480360381019080803590602001909291908035906020019092919050505061067d565b005b3480156102b257600080fd5b506102bb610709565b6040518082815260200191505060405180910390f35b3480156102dd57600080fd5b506102e661070f565b604051808273ffffffffffffffffffffffffffffffffffffffff1673ffffffffffffffffffffffffffffffffffffffff16815260200191505060405180910390f35b34801561033457600080fd5b5061033d610735565b6040518082815260200191505060405180910390f35b34801561035f57600080fd5b5061036861073b565b6040518082815260200191505060405180910390f35b34801561038a57600080fd5b50610393610741565b6040518082815260200191505060405180910390f35b3480156103b557600080fd5b506103f26004803603810190808035906020019092919080359060200190929190803590602001909291908035906020019092919050505061074b565b604051808381526020018281526020019250505060405180910390f35b34801561041b57600080fd5b5061042461077d565b6040518082815260200191505060405180910390f35b34801561044657600080fd5b5061044f610783565b604051808381526020018281526020019250505060405180910390f35b34801561047857600080fd5b50610481610794565b005b34801561048f57600080fd5b506104986107bb565b6040518082815260200191505060405180910390f35b3480156104ba57600080fd5b506104c36107c1565b6040518082815260200191505060405180910390f35b3480156104e557600080fd5b506105186004803603810190808035906020019092919080359060200190929190803590602001909291905050506107c7565b604051808381526020018281526020019250505060405180910390f35b34801561054157600080fd5b5061054a61081b565b604051808381526020018281526020019250505060405180910390f35b34801561057357600080fd5b5061057c61087a565b6040518082815260200191505060405180910390f35b34801561059e57600080fd5b506105c76004803603810190808035906020019092919080359060200190929190505050610880565b005b3480156105d557600080fd5b506105de6108f7565b6040518082815260200191505060405180910390f35b34801561060057600080fd5b506106096108fd565b604051808381526020018281526020019250505060405180910390f35b60005481565b84600381905550836004819055508260028190555081600081905550806001819055506106588361095c565b600b819055505050505050565b600b5481565b60035481565b600a5481565b60015481565b600080600860003373ffffffffffffffffffffffffffffffffffffffff1673ffffffffffffffffffffffffffffffffffffffff1681526020019081526020016000205414156106fb576106d9600b54600280540360025461098c565b90506106e68383836107c7565b60106000601160008491905055839190505550505b610704836109e5565b505050565b600c5481565b600560009054906101000a900473ffffffffffffffffffffffffffffffffffffffff1681565b60115481565b60045481565b6000600b54905090565b60008060025480151561075a57fe5b84870960025480151561076957fe5b848709809250819350505094509492505050565b600f5481565b600080600c54600d54915091509091565b6107a5600054600154600b546107c7565b600c6000600d6000849190505583919050555050565b600e5481565b60105481565b60008060006107d98487876001610abe565b8093508194508295505050506107ee81610b86565b90506002548015156107fc57fe5b818409925060025480151561080d57fe5b818309915050935093915050565b6000806001600660003373ffffffffffffffffffffffffffffffffffffffff1673ffffffffffffffffffffffffffffffffffffffff16815260200190815260200160002060008282540192505081905550601054601154915091509091565b60025481565b6000600660003373ffffffffffffffffffffffffffffffffffffffff1673ffffffffffffffffffffffffffffffffffffffff1681526020019081526020016000205414156108ea576108d58282600b546107c7565b600e6000600f60008491905055839190505550505b6108f382610c02565b5050565b600d5481565b6000806001600660003373ffffffffffffffffffffffffffffffffffffffff1673ffffffffffffffffffffffffffffffffffffffff16815260200190815260200160002060008282540192505081905550600e54600f54915091509091565b6000806001600a5401600a8190555082610977600a54610cdb565b81151561098057fe5b06905080915050919050565b600080600060019150600190505b84811115156109d95760008186161415156109bf57838015156109b957fe5b86830991505b838015156109c957fe5b868709955060028102905061099a565b81925050509392505050565b3373ffffffffffffffffffffffffffffffffffffffff167fecaf2ce53237aac054ad6ae1d2bd5f41f791b589000795e92aeccc771d693c9442600860003373ffffffffffffffffffffffffffffffffffffffff1673ffffffffffffffffffffffffffffffffffffffff16815260200190815260200160002054846040518080602001858152602001848152602001838152602001828103825260168152602001807f63726564656e7469616c5f74726163696e675f6c6f670000000000000000000081525060200194505050505060405180910390a250565b6000806000806000806000806000808d96508c95508b94508a935060009250600091506001905060008e1415610b07576000806001829250819150809050995099509950610b75565b5b600087141515610b6557600060018816141515610b3a57610b2d838383898989610dc5565b8093508194508295505050505b600287811515610b4657fe5b049650610b54868686610f8f565b809650819750829850505050610b08565b828282809a50819b50829c505050505b505050505050509450945094915050565b600080600080600080600094506001935060025492508691505b600082141515610bf5578183811515610bb557fe5b04905083600254801515610bc557fe5b600254801515610bd157fe5b86840960025403870880955081965050508182820284038093508194505050610ba0565b8495505050505050919050565b3373ffffffffffffffffffffffffffffffffffffffff167fecaf2ce53237aac054ad6ae1d2bd5f41f791b589000795e92aeccc771d693c9442600660003373ffffffffffffffffffffffffffffffffffffffff1673ffffffffffffffffffffffffffffffffffffffff16815260200190815260200160002054846040518080602001858152602001848152602001838152602001828103825260168152602001807f63726564656e7469616c5f74726163696e675f6c6f670000000000000000000081525060200194505050505060405180910390a250565b60004244334285604051602001808681526020018581526020018473ffffffffffffffffffffffffffffffffffffffff1673ffffffffffffffffffffffffffffffffffffffff166c01000000000000000000000000028152601401838152602001828152602001955050505050506040516020818303038152906040526040518082805190602001908083835b602083101515610d8d5780518252602082019150602081019050602083039250610d68565b6001836020036101000a0380198251168184511680821785525050505050509050019150506040518091039020600190049050919050565b6000806000806000806000808d148015610ddf575060008c145b15610df257898989965096509650610f7f565b60008a148015610e025750600089145b15610e15578c8c8c965096509650610f7f565b898d148015610e235750888c145b15610e8457610e348d8c8f8e61074b565b8094508195505050610e4a84846003600161074b565b8094508195505050610e6184846003546001610fb7565b8094508195505050610e778c8c6002600161074b565b8092508193505050610ead565b610e9089898e8e611005565b8094508195505050610ea48a898f8e611005565b80925081935050505b610eb984848484611057565b8094508195505050610ecd8484868661074b565b8093508198505050610ee187838f8e611005565b8093508198505050610ef587838c8b611005565b8093508198505050610f098d8c8985611005565b8092508197505050610f1d8682868661074b565b8092508197505050610f3186828e8e611005565b80925081975050508082141515610f7a57600254801515610f4e57fe5b8188099650600254801515610f5f57fe5b8287099550600254801515610f7057fe5b8183099450610f7e565b8194505b5b5050505096509650969350505050565b6000806000610fa2868686898989610dc5565b80935081945082955050505093509350939050565b600080600254801515610fc657fe5b600254801515610fd257fe5b868609600254801515610fe157fe5b88860908600254801515610ff157fe5b848709809250819350505094509492505050565b60008060025480151561101457fe5b60025480151561102057fe5b8686600254030960025480151561103357fe5b8886090860025480151561104357fe5b848709809250819350505094509492505050565b60008060025480151561106657fe5b83870960025480151561107557fe5b8587098092508193505050945094925050505600a165627a7a72305820e99fa3b68837fe3de508d338785c6726061994a57b14ee520b70e5d7ff48b49c0029",
  "source": "pragma solidity ^0.4.18;\n\n//author:rujia\n//website:www.rujia.uk\n//version:1.0\n\ncontract AuditTracer {\n    \n    uint256 public gx;\n    uint256 public gy;\n    uint256 public p;\n    uint256 public a;\n    uint256 public b;\n \n    // The address of the account that created this ballot.\n    address public tracerCreator;\n    mapping (address => uint256) private CredentialTraceTimes;\n    mapping (address => uint256) private CredentialTraceResults;\n    \n    mapping (address => uint256) private IdentityTraceTimes;\n    mapping (address => uint256) private IdentityTraceResults;\n  \n    uint256 public index = 0;\n    uint256 public xt;\n    \n    uint256 public yt_x;\n    uint256 public yt_y;\n    \n    uint256 public c_x;\n    uint256 public c_y;\n    \n    uint256 public i_x;\n    uint256 public i_y;\n    \n    constructor() public {\n        tracerCreator = msg.sender;\n    }\n \n    event trace_log(\n        string information,\n        address indexed sender,\n        uint256 timestamp,\n        uint256 calltimes,\n        uint256 obj\n    );\n    \n    function credential_tracing_log(uint256 obj) internal {\n         emit trace_log(\"credential_tracing_log\", msg.sender, now, CredentialTraceTimes[msg.sender], obj);\n    }\n    \n    function identity_tracing_log(uint256 obj) internal {\n         emit trace_log(\"credential_tracing_log\", msg.sender, now, IdentityTraceTimes[msg.sender], obj);\n    }\n  \n  function register_parameter(uint256 _a, uint256 _b, uint256 _p, uint256 _gx, uint256 _gy) public{ \n    a = _a;\n    b = _b;\n    p = _p;\n    gx = _gx;\n    gy = _gy;\n        xt = rand_less_than(_p);\n    }\n    \n    function get_private_key() public view returns(uint256){  \n    return xt;\n  }\n    \n    function calculate_public_key() public{  \n        (yt_x, yt_y) = ecmul(gx, gy, xt);\n  }\n  \n  function get_public_key() public view returns(uint256 , uint256 ){  \n    return (yt_x, yt_y);\n  }\n  \n  function credential_tracing() public returns(uint256,uint256){\n          CredentialTraceTimes[msg.sender] += 1;\n      return (c_x,c_y);\n  }\n  \n  function identity_tracing() public returns(uint256,uint256){\n          CredentialTraceTimes[msg.sender] += 1;\n       return (i_x,i_y);\n  }\n\n  // trace the credential\n    function credential_calculating(uint256 xiupsilon_x, uint256 xiupsilon_y) public{\n      if (CredentialTraceTimes[msg.sender] == 0){\n            (c_x,c_y) = ecmul(xiupsilon_x, xiupsilon_y, xt);\n        }\n        credential_tracing_log(xiupsilon_x);\n    }\n    \n    // trace the identity\n    function identity_calculating(uint256 zeta1_x, uint256 zeta1_y) public{\n        if (IdentityTraceTimes[msg.sender] == 0){\n            uint256 nxt = quick_power(xt, p - 2, p);\n            (i_x,i_y) = ecmul(zeta1_x, zeta1_y, nxt);\n        }\n        identity_tracing_log(zeta1_x);\n    }\n    \n    function rand_less_than(uint256 upper_bound) private returns(uint256){\n        index = index + 1;\n        uint256 r = PRNG(index) % upper_bound;\n    return r;\n    }\n    \n    function PRNG(uint256 seed) private view returns(uint256) {\n        return uint256(uint256(keccak256(abi.encodePacked(block.timestamp, block.difficulty,msg.sender,now,seed)))) ;\n    }\n\n    function quick_power(uint256 al, uint256 bl, uint256 m) private pure returns(uint256){\n      uint256 result = 1;\n      for(uint256 count = 1; count <= bl; count*=2){\n          if(bl & count != 0){\n              result = mulmod(result, al, m);\n          }\n          al = mulmod(al, al, m);\n      }\n      return result;\n    }\n\n    function _jAdd(\n        uint256 x1, uint256 z1,\n        uint256 x2, uint256 z2)\n        internal \n        view\n        returns(uint256 x3, uint256 z3)\n    {\n        (x3, z3) = (\n            addmod(\n                mulmod(z2, x1, p),\n                mulmod(x2, z1, p),\n                p\n            ),\n            mulmod(z1, z2, p)\n        );\n    }\n\n    function _jSub(\n        uint256 x1, uint256 z1,\n        uint256 x2, uint256 z2)\n        internal \n        view\n        returns(uint256 x3, uint256 z3)\n    {\n        (x3, z3) = (\n            addmod(\n                mulmod(z2, x1, p),\n                mulmod(p - x2, z1, p),\n                p\n            ),\n            mulmod(z1, z2, p)\n        );\n    }\n\n    function _jMul(\n        uint256 x1, uint256 z1,\n        uint256 x2, uint256 z2)\n        public \n        view\n        returns(uint256 x3, uint256 z3)\n    {\n        (x3, z3) = (\n            mulmod(x1, x2, p),\n            mulmod(z1, z2, p)\n        );\n    }\n\n    function _jDiv(\n        uint256 x1, uint256 z1,\n        uint256 x2, uint256 z2) \n        internal \n        view\n        returns(uint256 x3, uint256 z3)\n    {\n        (x3, z3) = (\n            mulmod(x1, z2, p),\n            mulmod(z1, x2, p)\n        );\n    }\n\n    function _inverse(uint256 val) internal view\n        returns(uint256 invVal)\n    {\n        uint256 t = 0;\n        uint256 newT = 1;\n        uint256 r = p;\n        uint256 newR = val;\n        uint256 qi;\n        while (newR != 0) {\n            qi = r / newR;\n\n            (t, newT) = (newT, addmod(t, (p - mulmod(qi, newT, p)), p));\n            (r, newR) = (newR, r - qi * newR );\n        }\n\n        return t;\n    }\n\n    function _ecAdd(\n        uint256 x1, uint256 y1, uint256 z1,\n        uint256 x2, uint256 y2, uint256 z2) \n        internal \n        view\n        returns(uint256 x3, uint256 y3, uint256 z3)\n    {\n        uint256 lx;\n        uint256 lz;\n        uint256 da;\n        uint256 db;\n\n        if (x1 == 0 && y1 == 0) {\n            return (x2, y2, z2);\n        }\n\n        if (x2 == 0 && y2 == 0) {\n            return (x1, y1, z1);\n        }\n\n        if (x1 == x2 && y1 == y2) {\n            (lx, lz) = _jMul(x1, z1, x1, z1);\n            (lx, lz) = _jMul(lx, lz, 3, 1);\n            (lx, lz) = _jAdd(lx, lz, a, 1);\n\n            (da,db) = _jMul(y1, z1, 2, 1);\n        } else {\n            (lx, lz) = _jSub(y2, z2, y1, z1);\n            (da, db) = _jSub(x2, z2, x1, z1);\n        }\n\n        (lx, lz) = _jDiv(lx, lz, da, db);\n\n        (x3, da) = _jMul(lx, lz, lx, lz);\n        (x3, da) = _jSub(x3, da, x1, z1);\n        (x3, da) = _jSub(x3, da, x2, z2);\n\n        (y3, db) = _jSub(x1, z1, x3, da);\n        (y3, db) = _jMul(y3, db, lx, lz);\n        (y3, db) = _jSub(y3, db, y1, z1);\n\n        if (da != db) {\n            x3 = mulmod(x3, db, p);\n            y3 = mulmod(y3, da, p);\n            z3 = mulmod(da, db, p);\n        } else {\n            z3 = da;\n        }\n    }\n\n    function _ecDouble(uint256 x1, uint256 y1, uint256 z1) internal view\n        returns(uint256 x3, uint256 y3, uint256 z3)\n    {\n        (x3, y3, z3) = _ecAdd(x1, y1, z1, x1, y1, z1);\n    }\n\n    function _ecMul(uint256 d, uint256 x1, uint256 y1, uint256 z1) internal view\n        returns(uint256 x3, uint256 y3, uint256 z3)\n    {\n        uint256 remaining = d;\n        uint256 px = x1;\n        uint256 py = y1;\n        uint256 pz = z1;\n        uint256 acx = 0;\n        uint256 acy = 0;\n        uint256 acz = 1;\n\n        if (d == 0) {\n            return (0, 0, 1);\n        }\n\n        while (remaining != 0) {\n            if ((remaining & 1) != 0) {\n                (acx,acy,acz) = _ecAdd(acx, acy, acz, px, py, pz);\n            }\n            remaining = remaining / 2;\n            (px, py, pz) = _ecDouble(px, py, pz);\n        }\n\n        (x3, y3, z3) = (acx, acy, acz);\n    }\n\n    function ecadd(\n        uint256 x1, uint256 y1,\n        uint256 x2, uint256 y2)\n        internal\n        view\n        returns(uint256 x3, uint256 y3)\n    {\n        uint256 z;\n        (x3, y3, z) = _ecAdd(x1, y1, 1, x2, y2, 1);\n        z = _inverse(z);\n        x3 = mulmod(x3, z, p);\n        y3 = mulmod(y3, z, p);\n    }\n\n    function ecmul(uint256 x1, uint256 y1, uint256 scalar) public view\n        returns(uint256 x2, uint256 y2)\n    {\n        uint256 z;\n        (x2, y2, z) = _ecMul(scalar, x1, y1, 1);\n        z = _inverse(z);\n        x2 = mulmod(x2, z, p);\n        y2 = mulmod(y2, z, p);\n    }\n\n}",
  "sourcePath": "/home/rujia/workspaces/blindCA/contracts/AuditTracer.sol",
  "compiler": {
    "name": "solc",
    "version": "0.4.25+commit.59dbf8f1.Emscripten.clang"
  },
  "schemaVersion": "3.0.9",
  "updatedAt": "2019-05-21T12:58:28.087Z"
}